{
  "contractName": "CrowdSale",
  "abi": [
    {
      "inputs": [
        {
          "internalType": "uint256",
          "name": "_target",
          "type": "uint256"
        },
        {
          "internalType": "uint256",
          "name": "_deadline",
          "type": "uint256"
        }
      ],
      "stateMutability": "nonpayable",
      "type": "constructor"
    },
    {
      "inputs": [
        {
          "internalType": "address",
          "name": "",
          "type": "address"
        }
      ],
      "name": "Contributor",
      "outputs": [
        {
          "internalType": "uint256",
          "name": "",
          "type": "uint256"
        }
      ],
      "stateMutability": "view",
      "type": "function",
      "constant": true
    },
    {
      "inputs": [
        {
          "internalType": "uint256",
          "name": "",
          "type": "uint256"
        }
      ],
      "name": "Requests",
      "outputs": [
        {
          "internalType": "string",
          "name": "description",
          "type": "string"
        },
        {
          "internalType": "address payable",
          "name": "recipient",
          "type": "address"
        },
        {
          "internalType": "uint256",
          "name": "value",
          "type": "uint256"
        },
        {
          "internalType": "bool",
          "name": "completed",
          "type": "bool"
        },
        {
          "internalType": "uint256",
          "name": "noOfVoter",
          "type": "uint256"
        }
      ],
      "stateMutability": "view",
      "type": "function",
      "constant": true
    },
    {
      "inputs": [],
      "name": "deadline",
      "outputs": [
        {
          "internalType": "uint256",
          "name": "",
          "type": "uint256"
        }
      ],
      "stateMutability": "view",
      "type": "function",
      "constant": true
    },
    {
      "inputs": [],
      "name": "manager",
      "outputs": [
        {
          "internalType": "address",
          "name": "",
          "type": "address"
        }
      ],
      "stateMutability": "view",
      "type": "function",
      "constant": true
    },
    {
      "inputs": [],
      "name": "minContributor",
      "outputs": [
        {
          "internalType": "uint256",
          "name": "",
          "type": "uint256"
        }
      ],
      "stateMutability": "view",
      "type": "function",
      "constant": true
    },
    {
      "inputs": [],
      "name": "noOfContributor",
      "outputs": [
        {
          "internalType": "uint256",
          "name": "",
          "type": "uint256"
        }
      ],
      "stateMutability": "view",
      "type": "function",
      "constant": true
    },
    {
      "inputs": [],
      "name": "raisedAmount",
      "outputs": [
        {
          "internalType": "uint256",
          "name": "",
          "type": "uint256"
        }
      ],
      "stateMutability": "view",
      "type": "function",
      "constant": true
    },
    {
      "inputs": [],
      "name": "target",
      "outputs": [
        {
          "internalType": "uint256",
          "name": "",
          "type": "uint256"
        }
      ],
      "stateMutability": "view",
      "type": "function",
      "constant": true
    },
    {
      "inputs": [],
      "name": "sendEth",
      "outputs": [],
      "stateMutability": "payable",
      "type": "function",
      "payable": true
    },
    {
      "inputs": [],
      "name": "getTheBalanceOfContract",
      "outputs": [
        {
          "internalType": "uint256",
          "name": "",
          "type": "uint256"
        }
      ],
      "stateMutability": "nonpayable",
      "type": "function"
    },
    {
      "inputs": [],
      "name": "reFund",
      "outputs": [],
      "stateMutability": "nonpayable",
      "type": "function"
    },
    {
      "inputs": [
        {
          "internalType": "string",
          "name": "_description",
          "type": "string"
        },
        {
          "internalType": "address payable",
          "name": "_recipnet",
          "type": "address"
        },
        {
          "internalType": "uint256",
          "name": "_value",
          "type": "uint256"
        }
      ],
      "name": "createRequest",
      "outputs": [],
      "stateMutability": "nonpayable",
      "type": "function"
    },
    {
      "inputs": [],
      "name": "voting",
      "outputs": [],
      "stateMutability": "nonpayable",
      "type": "function"
    },
    {
      "inputs": [
        {
          "internalType": "uint256",
          "name": "_id",
          "type": "uint256"
        }
      ],
      "name": "makePayment",
      "outputs": [],
      "stateMutability": "nonpayable",
      "type": "function"
    }
  ],
  "bytecode": "0x60806040523480156200001157600080fd5b506040516200196b3803806200196b8339818101604052810190620000379190620000b9565b8160028190555080426200004c9190620000fa565b600381905550336000806101000a81548173ffffffffffffffffffffffffffffffffffffffff021916908373ffffffffffffffffffffffffffffffffffffffff16021790555060646005819055505050620001aa565b600081519050620000b38162000190565b92915050565b60008060408385031215620000cd57600080fd5b6000620000dd85828601620000a2565b9250506020620000f085828601620000a2565b9150509250929050565b6000620001078262000157565b9150620001148362000157565b9250827fffffffffffffffffffffffffffffffffffffffffffffffffffffffffffffffff038211156200014c576200014b62000161565b5b828201905092915050565b6000819050919050565b7f4e487b7100000000000000000000000000000000000000000000000000000000600052601160045260246000fd5b6200019b8162000157565b8114620001a757600080fd5b50565b6117b180620001ba6000396000f3fe6080604052600436106100dd5760003560e01c8063481c6a751161007f578063c59ee1dc11610059578063c59ee1dc1461027f578063d4b83992146102aa578063e723b9ac146102d5578063fce1ccca14610300576100dd565b8063481c6a75146102005780635114cb521461022b5780638c9ffd4014610254576100dd565b806329dcb0cf116100bb57806329dcb0cf1461012c5780632b84e453146101575780632f9cafad1461019457806340ac9993146101bf576100dd565b806306e99fef146100e25780630ff0a4df146100ec5780631b16bb5c14610103575b600080fd5b6100ea610317565b005b3480156100f857600080fd5b506101016104a5565b005b34801561010f57600080fd5b5061012a60048036038101906101259190610e0f565b61064d565b005b34801561013857600080fd5b50610141610833565b60405161014e9190611227565b60405180910390f35b34801561016357600080fd5b5061017e60048036038101906101799190610de6565b610839565b60405161018b9190611227565b60405180910390f35b3480156101a057600080fd5b506101a9610851565b6040516101b69190611227565b60405180910390f35b3480156101cb57600080fd5b506101e660048036038101906101e19190610e76565b610857565b6040516101f795949392919061108d565b60405180910390f35b34801561020c57600080fd5b50610215610942565b6040516102229190611072565b60405180910390f35b34801561023757600080fd5b50610252600480360381019061024d9190610e76565b610966565b005b34801561026057600080fd5b50610269610b3b565b6040516102769190611227565b60405180910390f35b34801561028b57600080fd5b50610294610b41565b6040516102a19190611227565b60405180910390f35b3480156102b657600080fd5b506102bf610b47565b6040516102cc9190611227565b60405180910390f35b3480156102e157600080fd5b506102ea610b4d565b6040516102f79190611227565b60405180910390f35b34801561030c57600080fd5b50610315610b55565b005b60055434101561035c576040517f08c379a0000000000000000000000000000000000000000000000000000000008152600401610353906111c7565b60405180910390fd5b60035442106103a0576040517f08c379a000000000000000000000000000000000000000000000000000000000815260040161039790611107565b60405180910390fd5b6000600160003373ffffffffffffffffffffffffffffffffffffffff1673ffffffffffffffffffffffffffffffffffffffff16815260200190815260200160002054141561040157600660008154809291906103fb9061143a565b91905055505b34600160003373ffffffffffffffffffffffffffffffffffffffff1673ffffffffffffffffffffffffffffffffffffffff1681526020019081526020016000205461044c91906112b4565b600160003373ffffffffffffffffffffffffffffffffffffffff1673ffffffffffffffffffffffffffffffffffffffff168152602001908152602001600020819055503460045461049d91906112b4565b600481905550565b600354421180156104b95750600254600454105b6104f8576040517f08c379a00000000000000000000000000000000000000000000000000000000081526004016104ef90611147565b60405180910390fd5b6000600160003373ffffffffffffffffffffffffffffffffffffffff1673ffffffffffffffffffffffffffffffffffffffff168152602001908152602001600020541161057a576040517f08c379a0000000000000000000000000000000000000000000000000000000008152600401610571906111a7565b60405180910390fd5b60003390508073ffffffffffffffffffffffffffffffffffffffff166108fc600160003373ffffffffffffffffffffffffffffffffffffffff1673ffffffffffffffffffffffffffffffffffffffff168152602001908152602001600020549081150290604051600060405180830381858888f19350505050158015610604573d6000803e3d6000fd5b506000600160003373ffffffffffffffffffffffffffffffffffffffff1673ffffffffffffffffffffffffffffffffffffffff1681526020019081526020016000208190555050565b60008054906101000a900473ffffffffffffffffffffffffffffffffffffffff1673ffffffffffffffffffffffffffffffffffffffff163373ffffffffffffffffffffffffffffffffffffffff16146106db576040517f08c379a00000000000000000000000000000000000000000000000000000000081526004016106d290611187565b60405180910390fd5b6002546004541015610722576040517f08c379a0000000000000000000000000000000000000000000000000000000008152600401610719906110e7565b60405180910390fd5b60006007600060085481526020019081526020016000209050600015158160030160009054906101000a900460ff16151514610793576040517f08c379a000000000000000000000000000000000000000000000000000000000815260040161078a906111e7565b60405180910390fd5b838160000190805190602001906107ab929190610c9c565b50828160010160006101000a81548173ffffffffffffffffffffffffffffffffffffffff021916908373ffffffffffffffffffffffffffffffffffffffff16021790555081816002018190555060018160030160006101000a81548160ff021916908315150217905550600860008154809291906108289061143a565b919050555050505050565b60035481565b60016020528060005260406000206000915090505481565b60055481565b600760205280600052604060002060009150905080600001805461087a906113d7565b80601f01602080910402602001604051908101604052809291908181526020018280546108a6906113d7565b80156108f35780601f106108c8576101008083540402835291602001916108f3565b820191906000526020600020905b8154815290600101906020018083116108d657829003601f168201915b5050505050908060010160009054906101000a900473ffffffffffffffffffffffffffffffffffffffff16908060020154908060030160009054906101000a900460ff16908060050154905085565b60008054906101000a900473ffffffffffffffffffffffffffffffffffffffff1681565b60008054906101000a900473ffffffffffffffffffffffffffffffffffffffff1673ffffffffffffffffffffffffffffffffffffffff163373ffffffffffffffffffffffffffffffffffffffff16146109f4576040517f08c379a00000000000000000000000000000000000000000000000000000000081526004016109eb90611187565b60405180910390fd5b6002546004541015610a3b576040517f08c379a0000000000000000000000000000000000000000000000000000000008152600401610a3290611167565b60405180910390fd5b6002600654610a4a919061130a565b6007600060085481526020019081526020016000206005015411610aa3576040517f08c379a0000000000000000000000000000000000000000000000000000000008152600401610a9a90611127565b60405180910390fd5b6007600082815260200190815260200160002060010160009054906101000a900473ffffffffffffffffffffffffffffffffffffffff1673ffffffffffffffffffffffffffffffffffffffff166108fc600760006008548152602001908152602001600020600201549081150290604051600060405180830381858888f19350505050158015610b37573d6000803e3d6000fd5b5050565b60065481565b60045481565b60025481565b600047905090565b6000151560076000600854815260200190815260200160002060040160003373ffffffffffffffffffffffffffffffffffffffff1673ffffffffffffffffffffffffffffffffffffffff16815260200190815260200160002060009054906101000a900460ff16151514610bfe576040517f08c379a0000000000000000000000000000000000000000000000000000000008152600401610bf590611207565b60405180910390fd5b6007600060085481526020019081526020016000206005016000815480929190610c279061143a565b9190505550600160076000600854815260200190815260200160002060040160003373ffffffffffffffffffffffffffffffffffffffff1673ffffffffffffffffffffffffffffffffffffffff16815260200190815260200160002060006101000a81548160ff021916908315150217905550565b828054610ca8906113d7565b90600052602060002090601f016020900481019282610cca5760008555610d11565b82601f10610ce357805160ff1916838001178555610d11565b82800160010185558215610d11579182015b82811115610d10578251825591602001919060010190610cf5565b5b509050610d1e9190610d22565b5090565b5b80821115610d3b576000816000905550600101610d23565b5090565b6000610d52610d4d84611267565b611242565b905082815260208101848484011115610d6a57600080fd5b610d75848285611395565b509392505050565b600081359050610d8c81611736565b92915050565b600081359050610da18161174d565b92915050565b600082601f830112610db857600080fd5b8135610dc8848260208601610d3f565b91505092915050565b600081359050610de081611764565b92915050565b600060208284031215610df857600080fd5b6000610e0684828501610d7d565b91505092915050565b600080600060608486031215610e2457600080fd5b600084013567ffffffffffffffff811115610e3e57600080fd5b610e4a86828701610da7565b9350506020610e5b86828701610d92565b9250506040610e6c86828701610dd1565b9150509250925092565b600060208284031215610e8857600080fd5b6000610e9684828501610dd1565b91505092915050565b610ea88161134d565b82525050565b610eb78161133b565b82525050565b610ec68161135f565b82525050565b6000610ed782611298565b610ee181856112a3565b9350610ef18185602086016113a4565b610efa8161153f565b840191505092915050565b6000610f126019836112a3565b9150610f1d82611550565b602082019050919050565b6000610f356024836112a3565b9150610f4082611579565b604082019050919050565b6000610f58601c836112a3565b9150610f63826115c8565b602082019050919050565b6000610f7b6014836112a3565b9150610f86826115f1565b602082019050919050565b6000610f9e6020836112a3565b9150610fa98261161a565b602082019050919050565b6000610fc16013836112a3565b9150610fcc82611643565b602082019050919050565b6000610fe46017836112a3565b9150610fef8261166c565b602082019050919050565b6000611007602d836112a3565b915061101282611695565b604082019050919050565b600061102a6018836112a3565b9150611035826116e4565b602082019050919050565b600061104d6015836112a3565b91506110588261170d565b602082019050919050565b61106c8161138b565b82525050565b60006020820190506110876000830184610eae565b92915050565b600060a08201905081810360008301526110a78188610ecc565b90506110b66020830187610e9f565b6110c36040830186611063565b6110d06060830185610ebd565b6110dd6080830184611063565b9695505050505050565b6000602082019050818103600083015261110081610f05565b9050919050565b6000602082019050818103600083015261112081610f28565b9050919050565b6000602082019050818103600083015261114081610f4b565b9050919050565b6000602082019050818103600083015261116081610f6e565b9050919050565b6000602082019050818103600083015261118081610f91565b9050919050565b600060208201905081810360008301526111a081610fb4565b9050919050565b600060208201905081810360008301526111c081610fd7565b9050919050565b600060208201905081810360008301526111e081610ffa565b9050919050565b600060208201905081810360008301526112008161101d565b9050919050565b6000602082019050818103600083015261122081611040565b9050919050565b600060208201905061123c6000830184611063565b92915050565b600061124c61125d565b90506112588282611409565b919050565b6000604051905090565b600067ffffffffffffffff82111561128257611281611510565b5b61128b8261153f565b9050602081019050919050565b600081519050919050565b600082825260208201905092915050565b60006112bf8261138b565b91506112ca8361138b565b9250827fffffffffffffffffffffffffffffffffffffffffffffffffffffffffffffffff038211156112ff576112fe611483565b5b828201905092915050565b60006113158261138b565b91506113208361138b565b9250826113305761132f6114b2565b5b828204905092915050565b60006113468261136b565b9050919050565b60006113588261136b565b9050919050565b60008115159050919050565b600073ffffffffffffffffffffffffffffffffffffffff82169050919050565b6000819050919050565b82818337600083830152505050565b60005b838110156113c25780820151818401526020810190506113a7565b838111156113d1576000848401525b50505050565b600060028204905060018216806113ef57607f821691505b60208210811415611403576114026114e1565b5b50919050565b6114128261153f565b810181811067ffffffffffffffff8211171561143157611430611510565b5b80604052505050565b60006114458261138b565b91507fffffffffffffffffffffffffffffffffffffffffffffffffffffffffffffffff82141561147857611477611483565b5b600182019050919050565b7f4e487b7100000000000000000000000000000000000000000000000000000000600052601160045260246000fd5b7f4e487b7100000000000000000000000000000000000000000000000000000000600052601260045260246000fd5b7f4e487b7100000000000000000000000000000000000000000000000000000000600052602260045260246000fd5b7f4e487b7100000000000000000000000000000000000000000000000000000000600052604160045260246000fd5b6000601f19601f8301169050919050565b7f54686520546172676574204973204e6f74205265616368656400000000000000600082015250565b7f5468652054696d65204973204f76657220546f2053656e64205468652045746860008201527f6572756d00000000000000000000000000000000000000000000000000000000602082015250565b7f54686520437269746172656120617265206e6f74207265616368656400000000600082015250565b7f596f7520417265204e6f7420456c696761626c65000000000000000000000000600082015250565b7f54686520726169736564416d6f756e74206973206e6f7420636f6d706c657465600082015250565b7f596f7520417265204e6f74204d616e6167657200000000000000000000000000600082015250565b7f596f7520417265204e6f7420436f6e7472696275746f72000000000000000000600082015250565b7f546865204d73672e76616c7565204973204c657373205468656e20546865206d60008201527f696e436f6e7472696275746f7200000000000000000000000000000000000000602082015250565b7f546865205265717565737420497320436f6d706c657465640000000000000000600082015250565b7f5970752041726520416c726561647920566f7465640000000000000000000000600082015250565b61173f8161133b565b811461174a57600080fd5b50565b6117568161134d565b811461176157600080fd5b50565b61176d8161138b565b811461177857600080fd5b5056fea26469706673582212200aa28263a8ba4877a5e504ce6b4b9e26f07f7c40972e556e27320c1ebde248e864736f6c63430008010033",
  "immutableReferences": {},
  "source": "pragma solidity ^0.8.1;\r\n\r\ncontract CrowdSale{\r\n\r\n    address public manager;\r\n    mapping(address=>uint)public Contributor;\r\n    uint public target;\r\n    uint public deadline;\r\n    uint public raisedAmount;\r\n    uint public minContributor;\r\n    uint public noOfContributor;\r\n\r\n\r\n    struct Request{\r\n        string description;\r\n        address payable recipient;\r\n        uint value;\r\n        bool completed;\r\n        mapping(address=>bool) voted;\r\n        uint noOfVoter;\r\n    }\r\n    mapping(uint=>Request)public Requests;\r\n    uint noOfRequest;\r\n    //Create The Constructor for the Set The Targer And The Deadline....\r\n    constructor(uint _target , uint _deadline){\r\n        target = _target;\r\n        deadline = block.timestamp + _deadline;\r\n        manager = msg.sender;\r\n        minContributor = 100 wei;\r\n    }\r\n    //The SendEth Function is used to send the eth in contract addresss...\r\n    function sendEth()public payable{\r\n        require(msg.value >= minContributor ,\"The Msg.value Is Less Then The minContributor\");\r\n        require(block.timestamp < deadline ,\"The Time Is Over To Send The Etherum\");\r\n        if(Contributor[msg.sender] == 0){\r\n            noOfContributor++;\r\n        }\r\n        Contributor[msg.sender] = Contributor[msg.sender]+msg.value;\r\n        raisedAmount = raisedAmount + msg.value;\r\n    }\r\n\r\n    function getTheBalanceOfContract()public returns(uint){\r\n        return address(this).balance;\r\n    }\r\n    function reFund()public{\r\n        require(block.timestamp > deadline && raisedAmount < target ,\"You Are Not Eligable\");\r\n        require(Contributor[msg.sender]>0,\"You Are Not Contributor\");\r\n        address payable user = payable(msg.sender);\r\n        user.transfer(Contributor[msg.sender]);\r\n        Contributor[msg.sender] =0;\r\n    }\r\n    modifier OnlyManager(){\r\n        require(msg.sender == manager ,\"You Are Not Manager\");\r\n        _;\r\n    }\r\n    function createRequest(string memory _description , address payable _recipnet , uint _value)public OnlyManager{\r\n        require(raisedAmount >= target ,\"The Target Is Not Reached\");\r\n        Request storage r = Requests[noOfRequest];\r\n        require(r.completed==false,\"The Request Is Completed\");\r\n        r.description = _description;\r\n        r.recipient=_recipnet;\r\n        r.value = _value;\r\n        r.completed = true;\r\n        noOfRequest++;\r\n    }\r\n    function voting()public{\r\n        require(Requests[noOfRequest].voted[msg.sender]==false,\"Ypu Are Already Voted\");\r\n        Requests[noOfRequest].noOfVoter++;\r\n        Requests[noOfRequest].voted[msg.sender] = true;\r\n        \r\n    }\r\n    function makePayment(uint _id)public OnlyManager{\r\n        require(raisedAmount >= target,\"The raisedAmount is not complete\");\r\n        require(Requests[noOfRequest].noOfVoter >  noOfContributor/2 ,\"The Critarea are not reached\");\r\n        Requests[_id].recipient.transfer(Requests[noOfRequest].value);\r\n    }\r\n\r\n}",
  "sourcePath": "C:\\Blockchain Development\\CrowdSale\\contracts\\crowdsale.sol",
  "compiler": {
    "name": "solc",
    "version": "0.8.1+commit.df193b15.Emscripten.clang"
  },
  "schemaVersion": "3.4.3",
  "updatedAt": "2021-11-18T13:08:36.702Z",
  "networkType": "ethereum",
  "devdoc": {
    "kind": "dev",
    "methods": {},
    "version": 1
  },
  "userdoc": {
    "kind": "user",
    "methods": {},
    "version": 1
  }
}