{
  "contractName": "Token",
  "abi": [
    {
      "inputs": [],
      "stateMutability": "nonpayable",
      "type": "constructor"
    },
    {
      "inputs": [
        {
          "internalType": "address",
          "name": "",
          "type": "address"
        },
        {
          "internalType": "address",
          "name": "",
          "type": "address"
        }
      ],
      "name": "allowance",
      "outputs": [
        {
          "internalType": "uint256",
          "name": "",
          "type": "uint256"
        }
      ],
      "stateMutability": "view",
      "type": "function",
      "constant": true
    },
    {
      "inputs": [
        {
          "internalType": "address",
          "name": "",
          "type": "address"
        }
      ],
      "name": "balanceOf",
      "outputs": [
        {
          "internalType": "uint256",
          "name": "",
          "type": "uint256"
        }
      ],
      "stateMutability": "view",
      "type": "function",
      "constant": true
    },
    {
      "inputs": [],
      "name": "decimals",
      "outputs": [
        {
          "internalType": "uint256",
          "name": "",
          "type": "uint256"
        }
      ],
      "stateMutability": "view",
      "type": "function",
      "constant": true
    },
    {
      "inputs": [],
      "name": "symbol",
      "outputs": [
        {
          "internalType": "string",
          "name": "",
          "type": "string"
        }
      ],
      "stateMutability": "view",
      "type": "function",
      "constant": true
    },
    {
      "inputs": [],
      "name": "tokenName",
      "outputs": [
        {
          "internalType": "string",
          "name": "",
          "type": "string"
        }
      ],
      "stateMutability": "view",
      "type": "function",
      "constant": true
    },
    {
      "inputs": [],
      "name": "totalSupply",
      "outputs": [
        {
          "internalType": "uint256",
          "name": "",
          "type": "uint256"
        }
      ],
      "stateMutability": "view",
      "type": "function",
      "constant": true
    },
    {
      "inputs": [
        {
          "internalType": "address",
          "name": "_to",
          "type": "address"
        },
        {
          "internalType": "uint256",
          "name": "_amount",
          "type": "uint256"
        }
      ],
      "name": "transfer",
      "outputs": [
        {
          "internalType": "bool",
          "name": "success",
          "type": "bool"
        }
      ],
      "stateMutability": "nonpayable",
      "type": "function"
    },
    {
      "inputs": [
        {
          "internalType": "address",
          "name": "_from",
          "type": "address"
        },
        {
          "internalType": "address",
          "name": "_to",
          "type": "address"
        },
        {
          "internalType": "uint256",
          "name": "_amount",
          "type": "uint256"
        }
      ],
      "name": "fromTransfer",
      "outputs": [
        {
          "internalType": "bool",
          "name": "success",
          "type": "bool"
        }
      ],
      "stateMutability": "nonpayable",
      "type": "function"
    },
    {
      "inputs": [
        {
          "internalType": "address",
          "name": "_spender",
          "type": "address"
        },
        {
          "internalType": "uint256",
          "name": "_amount",
          "type": "uint256"
        }
      ],
      "name": "approve",
      "outputs": [
        {
          "internalType": "bool",
          "name": "success",
          "type": "bool"
        }
      ],
      "stateMutability": "nonpayable",
      "type": "function"
    }
  ],
  "bytecode": "0x60806040526040518060400160405280600581526020017f416b617368000000000000000000000000000000000000000000000000000000815250600190805190602001906200005192919062000146565b506040518060400160405280600281526020017f416b000000000000000000000000000000000000000000000000000000000000815250600290805190602001906200009f92919062000146565b50601260035562200b20600455348015620000b957600080fd5b50336000806101000a81548173ffffffffffffffffffffffffffffffffffffffff021916908373ffffffffffffffffffffffffffffffffffffffff160217905550600454600560003373ffffffffffffffffffffffffffffffffffffffff1673ffffffffffffffffffffffffffffffffffffffff168152602001908152602001600020819055506200025b565b8280546200015490620001f6565b90600052602060002090601f016020900481019282620001785760008555620001c4565b82601f106200019357805160ff1916838001178555620001c4565b82800160010185558215620001c4579182015b82811115620001c3578251825591602001919060010190620001a6565b5b509050620001d39190620001d7565b5090565b5b80821115620001f2576000816000905550600101620001d8565b5090565b600060028204905060018216806200020f57607f821691505b602082108114156200022657620002256200022c565b5b50919050565b7f4e487b7100000000000000000000000000000000000000000000000000000000600052602260045260246000fd5b610c56806200026b6000396000f3fe608060405234801561001057600080fd5b50600436106100935760003560e01c806370a082311161006657806370a082311461012257806395d89b411461015257806395db4e9814610170578063a9059cbb146101a0578063dd62ed3e146101d057610093565b8063095ea7b31461009857806318160ddd146100c8578063313ce567146100e65780636c02a93114610104575b600080fd5b6100b260048036038101906100ad9190610821565b610200565b6040516100bf91906108fa565b60405180910390f35b6100d061028d565b6040516100dd9190610977565b60405180910390f35b6100ee610293565b6040516100fb9190610977565b60405180910390f35b61010c610299565b6040516101199190610915565b60405180910390f35b61013c6004803603810190610137919061076d565b610327565b6040516101499190610977565b60405180910390f35b61015a61033f565b6040516101679190610915565b60405180910390f35b61018a600480360381019061018591906107d2565b6103cd565b60405161019791906108fa565b60405180910390f35b6101ba60048036038101906101b59190610821565b610574565b6040516101c791906108fa565b60405180910390f35b6101ea60048036038101906101e59190610796565b61071e565b6040516101f79190610977565b60405180910390f35b600081600660003373ffffffffffffffffffffffffffffffffffffffff1673ffffffffffffffffffffffffffffffffffffffff16815260200190815260200160002060008573ffffffffffffffffffffffffffffffffffffffff1673ffffffffffffffffffffffffffffffffffffffff168152602001908152602001600020819055506001905092915050565b60045481565b60035481565b600180546102a690610ab3565b80601f01602080910402602001604051908101604052809291908181526020018280546102d290610ab3565b801561031f5780601f106102f45761010080835404028352916020019161031f565b820191906000526020600020905b81548152906001019060200180831161030257829003601f168201915b505050505081565b60056020528060005260406000206000915090505481565b6002805461034c90610ab3565b80601f016020809104026020016040519081016040528092919081815260200182805461037890610ab3565b80156103c55780601f1061039a576101008083540402835291602001916103c5565b820191906000526020600020905b8154815290600101906020018083116103a857829003601f168201915b505050505081565b600081600560008673ffffffffffffffffffffffffffffffffffffffff1673ffffffffffffffffffffffffffffffffffffffff168152602001908152602001600020541015610451576040517f08c379a000000000000000000000000000000000000000000000000000000000815260040161044890610957565b60405180910390fd5b81600560008673ffffffffffffffffffffffffffffffffffffffff1673ffffffffffffffffffffffffffffffffffffffff1681526020019081526020016000205461049c9190610a04565b600560008673ffffffffffffffffffffffffffffffffffffffff1673ffffffffffffffffffffffffffffffffffffffff1681526020019081526020016000208190555081600560008573ffffffffffffffffffffffffffffffffffffffff1673ffffffffffffffffffffffffffffffffffffffff1681526020019081526020016000205461052a91906109ae565b600560008573ffffffffffffffffffffffffffffffffffffffff1673ffffffffffffffffffffffffffffffffffffffff168152602001908152602001600020819055509392505050565b600081600560003373ffffffffffffffffffffffffffffffffffffffff1673ffffffffffffffffffffffffffffffffffffffff1681526020019081526020016000205410156105f8576040517f08c379a00000000000000000000000000000000000000000000000000000000081526004016105ef90610937565b60405180910390fd5b81600560003373ffffffffffffffffffffffffffffffffffffffff1673ffffffffffffffffffffffffffffffffffffffff168152602001908152602001600020546106439190610a04565b600560003373ffffffffffffffffffffffffffffffffffffffff1673ffffffffffffffffffffffffffffffffffffffff1681526020019081526020016000208190555081600560008573ffffffffffffffffffffffffffffffffffffffff1673ffffffffffffffffffffffffffffffffffffffff168152602001908152602001600020546106d191906109ae565b600560008573ffffffffffffffffffffffffffffffffffffffff1673ffffffffffffffffffffffffffffffffffffffff168152602001908152602001600020819055506001905092915050565b6006602052816000526040600020602052806000526040600020600091509150505481565b60008135905061075281610bf2565b92915050565b60008135905061076781610c09565b92915050565b60006020828403121561077f57600080fd5b600061078d84828501610743565b91505092915050565b600080604083850312156107a957600080fd5b60006107b785828601610743565b92505060206107c885828601610743565b9150509250929050565b6000806000606084860312156107e757600080fd5b60006107f586828701610743565b935050602061080686828701610743565b925050604061081786828701610758565b9150509250925092565b6000806040838503121561083457600080fd5b600061084285828601610743565b925050602061085385828601610758565b9150509250929050565b61086681610a4a565b82525050565b600061087782610992565b610881818561099d565b9350610891818560208601610a80565b61089a81610b43565b840191505092915050565b60006108b2602a8361099d565b91506108bd82610b54565b604082019050919050565b60006108d560338361099d565b91506108e082610ba3565b604082019050919050565b6108f481610a76565b82525050565b600060208201905061090f600083018461085d565b92915050565b6000602082019050818103600083015261092f818461086c565b905092915050565b60006020820190508181036000830152610950816108a5565b9050919050565b60006020820190508181036000830152610970816108c8565b9050919050565b600060208201905061098c60008301846108eb565b92915050565b600081519050919050565b600082825260208201905092915050565b60006109b982610a76565b91506109c483610a76565b9250827fffffffffffffffffffffffffffffffffffffffffffffffffffffffffffffffff038211156109f9576109f8610ae5565b5b828201905092915050565b6000610a0f82610a76565b9150610a1a83610a76565b925082821015610a2d57610a2c610ae5565b5b828203905092915050565b6000610a4382610a56565b9050919050565b60008115159050919050565b600073ffffffffffffffffffffffffffffffffffffffff82169050919050565b6000819050919050565b60005b83811015610a9e578082015181840152602081019050610a83565b83811115610aad576000848401525b50505050565b60006002820490506001821680610acb57607f821691505b60208210811415610adf57610ade610b14565b5b50919050565b7f4e487b7100000000000000000000000000000000000000000000000000000000600052601160045260246000fd5b7f4e487b7100000000000000000000000000000000000000000000000000000000600052602260045260246000fd5b6000601f19601f8301169050919050565b7f54686520546f6b656e2042616c616e6365204973204c657373205468656e205460008201527f6865205f616d6f756e7400000000000000000000000000000000000000000000602082015250565b7f5468652042616c616e636520496e2046726f6d204163636f756e74204973206c60008201527f657373205468656e2054686520416d6f756e7400000000000000000000000000602082015250565b610bfb81610a38565b8114610c0657600080fd5b50565b610c1281610a76565b8114610c1d57600080fd5b5056fea26469706673582212206e04022a650969763939d8f5c68e0257323c549c431e7affea03547b15c0241364736f6c63430008010033",
  "immutableReferences": {},
  "source": "pragma solidity ^0.8.1;\r\n\r\ncontract Token{\r\n\r\n    address Owner;\r\n    string public tokenName = \"Akash\";\r\n    string public symbol = \"Ak\";\r\n    uint public decimals = 18;\r\n    uint public totalSupply = 2100000;\r\n\r\n    mapping(address => uint)public balanceOf;\r\n    mapping(address => mapping(address =>uint))public allowance;\r\n    //The Transfer Function Is Used To Transfer The Token From Msg Sender Account to Another Account.....\r\n    constructor() {\r\n        Owner = msg.sender;\r\n        balanceOf[msg.sender] = totalSupply;\r\n    }\r\n    function transfer(address _to , uint _amount)public returns(bool success){\r\n        require(balanceOf[msg.sender] >= _amount ,\"The Token Balance Is Less Then The _amount\");\r\n        balanceOf[msg.sender] = balanceOf[msg.sender] - _amount;\r\n        balanceOf[_to] = balanceOf[_to] + _amount;\r\n        return true;\r\n    }\r\n    function fromTransfer(address _from , address _to ,uint _amount)public returns(bool success){\r\n        require(balanceOf[_from]>=_amount,\"The Balance In From Account Is less Then The Amount\");\r\n        balanceOf[_from ] = balanceOf[_from] - _amount;\r\n        balanceOf[_to] = balanceOf[_to] + _amount;\r\n    }\r\n    //Give The Number Of The Approvance From The Account to spender Account....\r\n    function approve(address _spender , uint _amount)public returns(bool success){\r\n        //require(allowance[msg.sender][_spender] > _amount,\"The Amount Of Token Is Less The The _amount\");\r\n        allowance[msg.sender][_spender] = _amount;\r\n        return true;\r\n    }\r\n}",
  "sourcePath": "C:\\Blockchain Development\\CrowdSale\\contracts\\Token.sol",
  "compiler": {
    "name": "solc",
    "version": "0.8.1+commit.df193b15.Emscripten.clang"
  },
  "schemaVersion": "3.4.3",
  "updatedAt": "2021-11-18T13:08:36.692Z",
  "networkType": "ethereum",
  "devdoc": {
    "kind": "dev",
    "methods": {},
    "version": 1
  },
  "userdoc": {
    "kind": "user",
    "methods": {},
    "version": 1
  }
}